:020000006D2A67
:0400060000000800EE
:10000A00083083120313FC002330FD00FD0B0B287C
:06001A00FC0B0B2808009E
:10002000103083120313FD00FD0B1428000008009C
:1000300083120313B11B1E2886111F288615311B3E
:100040002328061124280615B11A282886102928E5
:100050008614311A2D2806102E2806142918322845
:10006000061633280612861603208612B1193A287E
:1000700086113B28861531193F28061140280615A0
:10008000B1184428861045288614311849280610CE
:100090004A28061429184E2806164F2806128616D6
:1000A00003208612291C56280520572810200800F6
:0E00B0008312031328088A0027088200080024
:1000BE008312031329102E08B100182029140800EA
:1000CE007928803083120313AE008C28C030AE0026
:1000DE008C289430AE008C28D430AE008C28803022
:1000EE00AE008C28831203132E08013A03196828D8
:1000FE002E08023A03196D282E08033A03197028A8
:10010E002E08043A0319732876282F03F0002E08C0
:10011E00F0077008AE0029147008B10018202910DD
:0A012E003008B10018202914080061
:10013800683083120313B1001820AC012C08073C67
:10014800031CB8282C08CF3EF00002300318013EEB
:10015800F1007008A7007108A80058208A110A1237
:10016800AE005F20AC0AA2280230B10018202A088D
:0E017800AE002B08AF000530B0006720080075
:10018600503083120313B1001820AC012C08073C31
:10019600031CDF282C08DF3EF00002300318013E66
:1001A600F1007008A7007108A80058208A110A12E9
:1001B600AE005F20AC0AC9280230B10018202A0818
:0E01C600AE002B08AF000230B000672008002A
:1001D400403083120313B1001820AC012C08073CF3
:1001E400031C06292C08EF3EF00002300318013EE0
:1001F400F1007008A7007108A80058208A110A129B
:10020400AE005F20AC0AF0280230B10018202A08A2
:0C021400AE002B08AF00B001672008000E
:10022000583083120313B1001820AC012C08073C8E
:10023000031C2C292C08D73EF00002300318013E85
:10024000F1007008A7007108A80058208A110A124E
:10025000AE005F20AC0A16290230B10018202A082F
:0E026000AE002B08AF000330B000672008008E
:10026E00783083120313B1001820AC012C08073C20
:10027E00031C53292C08B73EF00002300318013E30
:10028E00F1007008A7007108A80058208A110A1200
:10029E00AE005F20AC0A3D290230B10018202A08BA
:0E02AE00AE002B08AF000730B000672008003C
:1002BC007029803083120313AA008329C030AA004E
:1002CC0083299430AA008329D430AA008329803052
:1002DC00AA008329831203132A08013A03195F2900
:1002EC002A08023A031964292A08033A03196729D0
:1002FC002A08043A03196A296D292B03F0002A08ED
:10030C00F0077008AA007008B10018202910AD0180
:10031C002D082C078400000803199C292D082C0794
:10032C0084000008AE005F20AD0A8E292914080055
:10033C00483083120313B1001820AC012C08073C81
:10034C00031CBA292C08E73EF00002300318013ECA
:10035C00F1007008A7007108A80058208A110A1231
:10036C00AE005F20AC0AA4290230B10018202A0884
:0E037C00AE002B08AF000130B0006720080073
:10038A00603083120313B1001820AC012C08073C1B
:10039A00031CE1292C08BF3EF00002300318013E7D
:1003AA00F1007008A7007108A80058208A110A12E3
:1003BA00AE005F20AC0ACB290230B10018202A080F
:0E03CA00AE002B08AF000430B0006720080022
:1003D800703083120313B1001820AC012C08073CBD
:1003E800031C082A2C08C73EF00002300318013EFF
:1003F800F1007008A7007108A80058208A110A1295
:10040800AE005F20AC0AF2290230B10018202A0899
:0E041800AE002B08AF000630B00067200800D1
:1004260058208A110A128000840AA70A0319A80A0A
:08043600F003031D132A080066
:10043E0083160313861206120610861006118611F5
:10044E0083128612061286110611861006100520DA
:10045E000520052086140614861603208612052014
:10046E008616032086120520861603208612052086
:10047E000610861603208612052086160320861285
:10048E008610861586160320861205208611061400
:10049E008616032086120610861603208612052065
:1004AE008616032086120614861603208612052051
:1004BE000610861603208612861506158614061457
:0C04CE0086160320861205202914080061
:1004DA00423083120313A0004130A1005430A2001D
:1004EA004D30A3004130A4004E30A500A60183166A
:1004FA000317880189018601031388011F2201302D
:10050A00B10018200230AA000130AB002030AC0044
:10051A005E210130AA000830AB00EA200130AA00AF
:10052A000930AB009E210130AA000A30AB00C3207B
:10053A000130AA000B30AB0010210230AA000830AB
:10054A00AB00C5210230AA000930AB009C20023062
:10055A00AA000A30AB00EC210230AA000B30AB0033
:04056A003721B62A55
:10056E001F341F341F340E34043408340034003466
:10057E001F341F341F340E3404340234003400345C
:10058E001F341F341F341934103400340034003437
:10059E001F341F341F34133401340034003400343C
:1005AE00003410340C340E341F341F341F341F34F7
:1005BE0000340834183418341D341F341F341F34DB
:1005CE00003402340334033417341F341F341F3401
:1005DE000034013406340E341F341F341F341F34DC
:04400E00D2230007B2
:00000001FF
