:020000006F2A65
:06000600000000000800EC
:10000C000F3083120313FC004730FD00FD0B0C284E
:0A001C00FC0B0C2800000000080097
:0E002600213083120313FD00FD0B1728080084
:1000340083120313B31B2028861121288615331B32
:100044002528061126280615B31A2A2886102B28D7
:100054008614331A2F280610302806142918342839
:10006400061635280612861603208612B3193C2874
:1000740086113D2886153319412806114228061594
:10008400B318462886104728861433184B280610C0
:100094004C280614291850280616512806128616CC
:1000A40003208612291C58280620592813200800EA
:0E00B400831203132B088A002A08820008001A
:1000C2008312031329103008B3001A2029140800E0
:1000D2007B28803083120313B0008E28C030B0001A
:1000E2008E289430B0008E28D430B0008E28803014
:1000F200B0008E28831203133008013A03196A28CC
:100102003008023A03196F283008033A031972289B
:100112003008043A0319752878283103F0003008B2
:10012200F0077008B00029147008B3001A202910D3
:0A0132003208B3001A202914080057
:10013C00683083120313B3001A20AE012E08073C5B
:10014C00031CBA282E08E13EF00002300318013ED1
:10015C00F1007008AA007108AB005A208A110A122B
:10016C00B0006120AE0AA4280230B3001A202C087B
:0E017C00B0002D08B1000530B2006920080067
:10018A00503083120313B3001A20AE012E08073C25
:10019A00031CE1282E08F13EF00002300318013E4C
:1001AA00F1007008AA007108AB005A208A110A12DD
:1001BA00B0006120AE0ACB280230B3001A202C0806
:0E01CA00B0002D08B1000230B200692008001C
:1001D800403083120313B3001A20AE012E08073CE7
:1001E800031C08292E08013EF00003300318013EC5
:1001F800F1007008AA007108AB005A208A110A128F
:10020800B0006120AE0AF2280230B3001A202C0890
:0C021800B0002D08B100B2016920080000
:10022400583083120313B3001A20AE012E08073C82
:10023400031C2E292E08E93EF00002300318013E6B
:10024400F1007008AA007108AB005A208A110A1242
:10025400B0006120AE0A18290230B3001A202C081D
:0E026400B0002D08B1000330B2006920080080
:10027200783083120313B3001A20AE012E08073C14
:10028200031C55292E08C93EF00002300318013E16
:10029200F1007008AA007108AB005A208A110A12F4
:1002A200B0006120AE0A3F290230B3001A202C08A8
:0E02B200B0002D08B1000730B200692008002E
:1002C0007229803083120313AC008529C030AC0042
:1002D00085299430AC008529D430AC008529803044
:1002E000AC008529831203132C08013A03196129F4
:1002F0002C08023A031966292C08033A03196929C4
:100300002C08043A03196C296F292D03F0002C08DE
:10031000F0077008AC007008B3001A202910AF0174
:100320002F082E078400000803199E292F082E0786
:1003300084000008B0006120AF0A90292914080049
:10034000483083120313B3001A20AE012E08073C75
:10035000031CBC292E08F93EF00002300318013EB0
:10036000F1007008AA007108AB005A208A110A1225
:10037000B0006120AE0AA6290230B3001A202C0872
:0E038000B0002D08B1000130B2006920080065
:10038E00603083120313B3001A20AE012E08073C0F
:10039E00031CE3292E08D13EF00002300318013E63
:1003AE00F1007008AA007108AB005A208A110A12D7
:1003BE00B0006120AE0ACD290230B3001A202C08FD
:0E03CE00B0002D08B1000430B2006920080014
:1003DC00703083120313B3001A20AE012E08073CB1
:1003EC00031C0A2A2E08D93EF00002300318013EE5
:1003FC00F1007008AA007108AB005A208A110A1289
:10040C00B0006120AE0AF4290230B3001A202C0887
:0E041C00B0002D08B1000630B20069200800C3
:10042A005A208A110A128000840AAA0A0319AB0AFE
:08043A00F003031D152A080060
:1004420083160313861206120610861006118611F1
:1004520083128612061286110611861006100620D5
:10046200062006208614061486160320861206200D
:100472008616032086120620861603208612062080
:100482000610861603208612062086160320861280
:1004920086108615861603208612062086110614FB
:1004A2008616032086120610861603208612062060
:1004B200861603208612061486160320861206204C
:1004C2000610861603208612861506158614061453
:0C04D2008616032086120620291408005C
:1004DE00533083120313A0005530A1005030A200F8
:1004EE004530A3005230A4004D30A5004130A60087
:1004FE004E30A700A80183160317880189018601D3
:10050E0021220C30B3001A200130AC000130AD00B6
:10051E002030AE0060210130AC000B30AD00EC207D
:10052E000130AC000C30AD00A0210130AC000D301C
:10053E00AD00C5200130AC000E30AD0012210230EE
:10054E00AC000B30AD00C7210230AC000C30AD005A
:10055E009E200230AC000D30AD00EE210230AC001A
:10056E000E30AD0039210630FB001330FC00AD30EB
:10057E00FD00FD0BC02AFC0BC02AFB0BC02A00009D
:04058E000000C82A77
:100592001C34183410340034003400340034003475
:1005A200003400341C340C3404340034003400347D
:1005B2000034023406341E340E341C341834103421
:1005C200003416341F341C340E340734033401341F
:1005D200003418341E341E341734033407341634EE
:1005E20000341F341F340634033400341F341F34E4
:1005F20000341F341F341834103410341F341F34A5
:100602000034033407340E341D3419341D340F34CE
:04400E00D2230007B2
:00000001FF
